{
  "contractName": "PropertyMarketplace",
  "abi": [
    {
      "anonymous": false,
      "inputs": [
        {
          "indexed": false,
          "internalType": "uint256",
          "name": "propertyId",
          "type": "uint256"
        },
        {
          "indexed": false,
          "internalType": "string",
          "name": "location",
          "type": "string"
        },
        {
          "indexed": false,
          "internalType": "uint256",
          "name": "price",
          "type": "uint256"
        }
      ],
      "name": "PropertyListed",
      "type": "event"
    },
    {
      "anonymous": false,
      "inputs": [
        {
          "indexed": false,
          "internalType": "uint256",
          "name": "propertyId",
          "type": "uint256"
        }
      ],
      "name": "PropertyRemoved",
      "type": "event"
    },
    {
      "anonymous": false,
      "inputs": [
        {
          "indexed": false,
          "internalType": "uint256",
          "name": "propertyId",
          "type": "uint256"
        },
        {
          "indexed": false,
          "internalType": "address",
          "name": "newOwner",
          "type": "address"
        },
        {
          "indexed": false,
          "internalType": "uint256",
          "name": "salePrice",
          "type": "uint256"
        }
      ],
      "name": "PropertySold",
      "type": "event"
    },
    {
      "anonymous": false,
      "inputs": [
        {
          "indexed": false,
          "internalType": "uint256",
          "name": "propertyId",
          "type": "uint256"
        },
        {
          "indexed": false,
          "internalType": "uint256",
          "name": "percentage",
          "type": "uint256"
        },
        {
          "indexed": false,
          "internalType": "address",
          "name": "investor",
          "type": "address"
        }
      ],
      "name": "StakeBought",
      "type": "event"
    },
    {
      "anonymous": false,
      "inputs": [
        {
          "indexed": false,
          "internalType": "uint256",
          "name": "propertyId",
          "type": "uint256"
        },
        {
          "indexed": false,
          "internalType": "uint256",
          "name": "percentage",
          "type": "uint256"
        },
        {
          "indexed": false,
          "internalType": "address",
          "name": "investor",
          "type": "address"
        },
        {
          "indexed": false,
          "internalType": "uint256",
          "name": "price",
          "type": "uint256"
        }
      ],
      "name": "StakeListedForSale",
      "type": "event"
    },
    {
      "anonymous": false,
      "inputs": [
        {
          "indexed": false,
          "internalType": "uint256",
          "name": "propertyId",
          "type": "uint256"
        },
        {
          "indexed": false,
          "internalType": "uint256",
          "name": "percentage",
          "type": "uint256"
        },
        {
          "indexed": false,
          "internalType": "address",
          "name": "investor",
          "type": "address"
        }
      ],
      "name": "StakeSaleCancelled",
      "type": "event"
    },
    {
      "anonymous": false,
      "inputs": [
        {
          "indexed": false,
          "internalType": "uint256",
          "name": "propertyId",
          "type": "uint256"
        },
        {
          "indexed": false,
          "internalType": "uint256",
          "name": "percentage",
          "type": "uint256"
        },
        {
          "indexed": false,
          "internalType": "address",
          "name": "seller",
          "type": "address"
        },
        {
          "indexed": false,
          "internalType": "address",
          "name": "buyer",
          "type": "address"
        }
      ],
      "name": "StakeSold",
      "type": "event"
    },
    {
      "inputs": [
        {
          "internalType": "uint256",
          "name": "",
          "type": "uint256"
        },
        {
          "internalType": "address",
          "name": "",
          "type": "address"
        }
      ],
      "name": "hasBoughtStake",
      "outputs": [
        {
          "internalType": "bool",
          "name": "",
          "type": "bool"
        }
      ],
      "stateMutability": "view",
      "type": "function",
      "constant": true
    },
    {
      "inputs": [
        {
          "internalType": "uint256",
          "name": "",
          "type": "uint256"
        }
      ],
      "name": "properties",
      "outputs": [
        {
          "internalType": "uint256",
          "name": "id",
          "type": "uint256"
        },
        {
          "internalType": "string",
          "name": "location",
          "type": "string"
        },
        {
          "internalType": "uint256",
          "name": "price",
          "type": "uint256"
        },
        {
          "internalType": "address",
          "name": "owner",
          "type": "address"
        },
        {
          "internalType": "uint256",
          "name": "currentStakePercentage",
          "type": "uint256"
        },
        {
          "internalType": "uint256",
          "name": "salePrice",
          "type": "uint256"
        },
        {
          "internalType": "bool",
          "name": "isForSale",
          "type": "bool"
        },
        {
          "internalType": "bool",
          "name": "isListed",
          "type": "bool"
        }
      ],
      "stateMutability": "view",
      "type": "function",
      "constant": true
    },
    {
      "inputs": [],
      "name": "propertyCount",
      "outputs": [
        {
          "internalType": "uint256",
          "name": "",
          "type": "uint256"
        }
      ],
      "stateMutability": "view",
      "type": "function",
      "constant": true
    },
    {
      "inputs": [
        {
          "internalType": "uint256",
          "name": "",
          "type": "uint256"
        },
        {
          "internalType": "uint256",
          "name": "",
          "type": "uint256"
        }
      ],
      "name": "propertyHistory",
      "outputs": [
        {
          "internalType": "address",
          "name": "owner",
          "type": "address"
        },
        {
          "internalType": "uint256",
          "name": "timestamp",
          "type": "uint256"
        },
        {
          "internalType": "uint256",
          "name": "price",
          "type": "uint256"
        }
      ],
      "stateMutability": "view",
      "type": "function",
      "constant": true
    },
    {
      "inputs": [
        {
          "internalType": "uint256",
          "name": "",
          "type": "uint256"
        },
        {
          "internalType": "uint256",
          "name": "",
          "type": "uint256"
        }
      ],
      "name": "stakePriceHistory",
      "outputs": [
        {
          "internalType": "uint256",
          "name": "timestamp",
          "type": "uint256"
        },
        {
          "internalType": "uint256",
          "name": "price",
          "type": "uint256"
        }
      ],
      "stateMutability": "view",
      "type": "function",
      "constant": true
    },
    {
      "inputs": [
        {
          "internalType": "uint256",
          "name": "",
          "type": "uint256"
        }
      ],
      "name": "stakes",
      "outputs": [
        {
          "internalType": "uint256",
          "name": "percentage",
          "type": "uint256"
        },
        {
          "internalType": "address",
          "name": "investor",
          "type": "address"
        },
        {
          "internalType": "uint256",
          "name": "salePrice",
          "type": "uint256"
        },
        {
          "internalType": "bool",
          "name": "forSale",
          "type": "bool"
        }
      ],
      "stateMutability": "view",
      "type": "function",
      "constant": true
    },
    {
      "inputs": [
        {
          "internalType": "uint256",
          "name": "_propertyId",
          "type": "uint256"
        },
        {
          "internalType": "string",
          "name": "_location",
          "type": "string"
        },
        {
          "internalType": "uint256",
          "name": "_price",
          "type": "uint256"
        }
      ],
      "name": "listProperty",
      "outputs": [],
      "stateMutability": "nonpayable",
      "type": "function"
    },
    {
      "inputs": [
        {
          "internalType": "uint256",
          "name": "_propertyId",
          "type": "uint256"
        },
        {
          "internalType": "uint256",
          "name": "_newPrice",
          "type": "uint256"
        }
      ],
      "name": "reSellProperty",
      "outputs": [],
      "stateMutability": "nonpayable",
      "type": "function"
    },
    {
      "inputs": [
        {
          "internalType": "uint256",
          "name": "_propertyId",
          "type": "uint256"
        }
      ],
      "name": "buyProperty",
      "outputs": [],
      "stateMutability": "payable",
      "type": "function",
      "payable": true
    },
    {
      "inputs": [
        {
          "internalType": "uint256",
          "name": "_propertyId",
          "type": "uint256"
        }
      ],
      "name": "cancelPropertySale",
      "outputs": [],
      "stateMutability": "nonpayable",
      "type": "function"
    },
    {
      "inputs": [
        {
          "internalType": "uint256",
          "name": "_propertyId",
          "type": "uint256"
        }
      ],
      "name": "removeProperty",
      "outputs": [],
      "stateMutability": "nonpayable",
      "type": "function"
    },
    {
      "inputs": [
        {
          "internalType": "uint256",
          "name": "_propertyId",
          "type": "uint256"
        }
      ],
      "name": "getPropertyHistory",
      "outputs": [
        {
          "components": [
            {
              "internalType": "address",
              "name": "owner",
              "type": "address"
            },
            {
              "internalType": "uint256",
              "name": "timestamp",
              "type": "uint256"
            },
            {
              "internalType": "uint256",
              "name": "price",
              "type": "uint256"
            }
          ],
          "internalType": "struct PropertyMarketplace.History[]",
          "name": "",
          "type": "tuple[]"
        }
      ],
      "stateMutability": "view",
      "type": "function",
      "constant": true
    },
    {
      "inputs": [
        {
          "internalType": "uint256",
          "name": "_propertyId",
          "type": "uint256"
        }
      ],
      "name": "getProperty",
      "outputs": [
        {
          "components": [
            {
              "internalType": "uint256",
              "name": "id",
              "type": "uint256"
            },
            {
              "internalType": "string",
              "name": "location",
              "type": "string"
            },
            {
              "internalType": "uint256",
              "name": "price",
              "type": "uint256"
            },
            {
              "internalType": "address",
              "name": "owner",
              "type": "address"
            },
            {
              "internalType": "uint256",
              "name": "currentStakePercentage",
              "type": "uint256"
            },
            {
              "internalType": "uint256",
              "name": "salePrice",
              "type": "uint256"
            },
            {
              "internalType": "bool",
              "name": "isForSale",
              "type": "bool"
            },
            {
              "internalType": "bool",
              "name": "isListed",
              "type": "bool"
            }
          ],
          "internalType": "struct PropertyMarketplace.Property",
          "name": "",
          "type": "tuple"
        }
      ],
      "stateMutability": "view",
      "type": "function",
      "constant": true
    },
    {
      "inputs": [
        {
          "internalType": "uint256",
          "name": "_propertyId",
          "type": "uint256"
        },
        {
          "internalType": "uint256",
          "name": "_stakePercentage",
          "type": "uint256"
        }
      ],
      "name": "buyStake",
      "outputs": [],
      "stateMutability": "payable",
      "type": "function",
      "payable": true
    },
    {
      "inputs": [
        {
          "internalType": "uint256",
          "name": "_propertyId",
          "type": "uint256"
        },
        {
          "internalType": "uint256",
          "name": "_price",
          "type": "uint256"
        }
      ],
      "name": "sellStake",
      "outputs": [],
      "stateMutability": "nonpayable",
      "type": "function"
    },
    {
      "inputs": [
        {
          "internalType": "uint256",
          "name": "_propertyId",
          "type": "uint256"
        }
      ],
      "name": "buyStakeFromMarketplace",
      "outputs": [],
      "stateMutability": "payable",
      "type": "function",
      "payable": true
    },
    {
      "inputs": [
        {
          "internalType": "uint256",
          "name": "_propertyId",
          "type": "uint256"
        }
      ],
      "name": "getStakePrice",
      "outputs": [
        {
          "components": [
            {
              "internalType": "uint256",
              "name": "timestamp",
              "type": "uint256"
            },
            {
              "internalType": "uint256",
              "name": "price",
              "type": "uint256"
            }
          ],
          "internalType": "struct PropertyMarketplace.StakeHistory[]",
          "name": "",
          "type": "tuple[]"
        }
      ],
      "stateMutability": "view",
      "type": "function",
      "constant": true
    },
    {
      "inputs": [],
      "name": "getPropertyCount",
      "outputs": [
        {
          "internalType": "uint256",
          "name": "",
          "type": "uint256"
        }
      ],
      "stateMutability": "view",
      "type": "function",
      "constant": true
    },
    {
      "inputs": [],
      "name": "getAllProperties",
      "outputs": [
        {
          "components": [
            {
              "internalType": "uint256",
              "name": "id",
              "type": "uint256"
            },
            {
              "internalType": "string",
              "name": "location",
              "type": "string"
            },
            {
              "internalType": "uint256",
              "name": "price",
              "type": "uint256"
            },
            {
              "internalType": "address",
              "name": "owner",
              "type": "address"
            },
            {
              "internalType": "uint256",
              "name": "currentStakePercentage",
              "type": "uint256"
            },
            {
              "internalType": "uint256",
              "name": "salePrice",
              "type": "uint256"
            },
            {
              "internalType": "bool",
              "name": "isForSale",
              "type": "bool"
            },
            {
              "internalType": "bool",
              "name": "isListed",
              "type": "bool"
            }
          ],
          "internalType": "struct PropertyMarketplace.Property[]",
          "name": "",
          "type": "tuple[]"
        }
      ],
      "stateMutability": "view",
      "type": "function",
      "constant": true
    }
  ],
  "bytecode": "0x608060405234801561001057600080fd5b5061381d806100206000396000f3fe6080604052600436106101145760003560e01c806358116227116100a0578063c2682e9411610064578063c2682e941461039b578063c361a335146103c4578063d5a44f86146103ef578063f7b108081461042f578063fd5852481461047357610114565b806358116227146102c45780636fa830a6146102ed5780636fb76fc3146103095780637326b90114610347578063bc43d06f1461037257610114565b806334805618116100e757806334805618146101cd5780633d51402c1461020a57806346d5118214610235578063487cfd3914610272578063546be0661461029b57610114565b806304f553c2146101195780630524d0501461013557806331bd40f91461015157806332665ffb14610190575b600080fd5b610133600480360381019061012e9190612095565b6104b0565b005b61014f600480360381019061014a91906120c2565b6107a3565b005b34801561015d57600080fd5b50610178600480360381019061017391906120c2565b610bc1565b60405161018793929190612152565b60405180910390f35b34801561019c57600080fd5b506101b760048036038101906101b29190612095565b610c28565b6040516101c49190612302565b60405180910390f35b3480156101d957600080fd5b506101f460048036038101906101ef9190612350565b610d9c565b604051610201919061239f565b60405180910390f35b34801561021657600080fd5b5061021f610dcb565b60405161022c919061252c565b60405180910390f35b34801561024157600080fd5b5061025c60048036038101906102579190612095565b610fe0565b604051610269919061262c565b60405180910390f35b34801561027e57600080fd5b5061029960048036038101906102949190612783565b611066565b005b3480156102a757600080fd5b506102c260048036038101906102bd91906120c2565b611399565b005b3480156102d057600080fd5b506102eb60048036038101906102e691906120c2565b61164a565b005b61030760048036038101906103029190612095565b61178f565b005b34801561031557600080fd5b50610330600480360381019061032b91906120c2565b611a48565b60405161033e9291906127f2565b60405180910390f35b34801561035357600080fd5b5061035c611a89565b604051610369919061281b565b60405180910390f35b34801561037e57600080fd5b5061039960048036038101906103949190612095565b611a92565b005b3480156103a757600080fd5b506103c260048036038101906103bd9190612095565b611c33565b005b3480156103d057600080fd5b506103d9611da3565b6040516103e6919061281b565b60405180910390f35b3480156103fb57600080fd5b5061041660048036038101906104119190612095565b611da9565b6040516104269493929190612836565b60405180910390f35b34801561043b57600080fd5b5061045660048036038101906104519190612095565b611e06565b60405161046a9897969594939291906128c5565b60405180910390f35b34801561047f57600080fd5b5061049a60048036038101906104959190612095565b611f10565b6040516104a79190612a3b565b60405180910390f35b60006005600083815260200190815260200160002090508060030160009054906101000a900460ff16610518576040517f08c379a000000000000000000000000000000000000000000000000000000000815260040161050f90612aa9565b60405180910390fd5b8060020154341461055e576040517f08c379a000000000000000000000000000000000000000000000000000000000815260040161055590612b15565b60405180910390fd5b6004600083815260200190815260200160002060003373ffffffffffffffffffffffffffffffffffffffff1673ffffffffffffffffffffffffffffffffffffffff16815260200190815260200160002060009054906101000a900460ff16156105fc576040517f08c379a00000000000000000000000000000000000000000000000000000000081526004016105f390612ba7565b60405180910390fd5b8060010160009054906101000a900473ffffffffffffffffffffffffffffffffffffffff1673ffffffffffffffffffffffffffffffffffffffff166108fc349081150290604051600060405180830381858888f19350505050158015610666573d6000803e3d6000fd5b50338160010160006101000a81548173ffffffffffffffffffffffffffffffffffffffff021916908373ffffffffffffffffffffffffffffffffffffffff1602179055506000816002018190555060008160030160006101000a81548160ff02191690831515021790555060016004600084815260200190815260200160002060003373ffffffffffffffffffffffffffffffffffffffff1673ffffffffffffffffffffffffffffffffffffffff16815260200190815260200160002060006101000a81548160ff0219169083151502179055507f469f23baacadd45730f37b37225dfd8eff63642ed9dea4f592db97e27fb1d4e18282600001548360010160009054906101000a900473ffffffffffffffffffffffffffffffffffffffff16336040516107979493929190612bc7565b60405180910390a15050565b60006002600084815260200190815260200160002090508060060160019054906101000a900460ff1661080b576040517f08c379a000000000000000000000000000000000000000000000000000000000815260040161080290612c58565b60405180910390fd5b6004600084815260200190815260200160002060003373ffffffffffffffffffffffffffffffffffffffff1673ffffffffffffffffffffffffffffffffffffffff16815260200190815260200160002060009054906101000a900460ff16156108a9576040517f08c379a00000000000000000000000000000000000000000000000000000000081526004016108a090612ba7565b60405180910390fd5b60328282600401546108bb9190612ca7565b11156108fc576040517f08c379a00000000000000000000000000000000000000000000000000000000081526004016108f390612d27565b60405180910390fd5b600060648383600201546109109190612d47565b61091a9190612dd0565b905080341461095e576040517f08c379a000000000000000000000000000000000000000000000000000000000815260040161095590612e4d565b60405180910390fd5b60405180608001604052808481526020013373ffffffffffffffffffffffffffffffffffffffff1681526020016000815260200160001515815250600560008681526020019081526020016000206000820151816000015560208201518160010160006101000a81548173ffffffffffffffffffffffffffffffffffffffff021916908373ffffffffffffffffffffffffffffffffffffffff1602179055506040820151816002015560608201518160030160006101000a81548160ff02191690831515021790555090505082826004016000828254610a3e9190612ca7565b9250508190555060016004600086815260200190815260200160002060003373ffffffffffffffffffffffffffffffffffffffff1673ffffffffffffffffffffffffffffffffffffffff16815260200190815260200160002060006101000a81548160ff021916908315150217905550600660008581526020019081526020016000206040518060400160405280428152602001838152509080600181540180825580915050600190039060005260206000209060020201600090919091909150600082015181600001556020820151816001015550508160030160009054906101000a900473ffffffffffffffffffffffffffffffffffffffff1673ffffffffffffffffffffffffffffffffffffffff166108fc829081150290604051600060405180830381858888f19350505050158015610b7f573d6000803e3d6000fd5b507fd472f23fea6a62cc8c964d3d789eb866a1d7469a84f1fea117fabf55981a6dd7848433604051610bb393929190612e6d565b60405180910390a150505050565b60036020528160005260406000208181548110610bdd57600080fd5b9060005260206000209060030201600091509150508060000160009054906101000a900473ffffffffffffffffffffffffffffffffffffffff16908060010154908060020154905083565b610c30611fec565b600260008381526020019081526020016000206040518061010001604052908160008201548152602001600182018054610c6990612ed3565b80601f0160208091040260200160405190810160405280929190818152602001828054610c9590612ed3565b8015610ce25780601f10610cb757610100808354040283529160200191610ce2565b820191906000526020600020905b815481529060010190602001808311610cc557829003601f168201915b50505050508152602001600282015481526020016003820160009054906101000a900473ffffffffffffffffffffffffffffffffffffffff1673ffffffffffffffffffffffffffffffffffffffff1673ffffffffffffffffffffffffffffffffffffffff16815260200160048201548152602001600582015481526020016006820160009054906101000a900460ff161515151581526020016006820160019054906101000a900460ff1615151515815250509050919050565b60046020528160005260406000206020528060005260406000206000915091509054906101000a900460ff1681565b60606000805467ffffffffffffffff811115610dea57610de9612658565b5b604051908082528060200260200182016040528015610e2357816020015b610e10611fec565b815260200190600190039081610e085790505b5090506000600190505b6000548111610fd857600260008281526020019081526020016000206040518061010001604052908160008201548152602001600182018054610e6f90612ed3565b80601f0160208091040260200160405190810160405280929190818152602001828054610e9b90612ed3565b8015610ee85780601f10610ebd57610100808354040283529160200191610ee8565b820191906000526020600020905b815481529060010190602001808311610ecb57829003601f168201915b50505050508152602001600282015481526020016003820160009054906101000a900473ffffffffffffffffffffffffffffffffffffffff1673ffffffffffffffffffffffffffffffffffffffff1673ffffffffffffffffffffffffffffffffffffffff16815260200160048201548152602001600582015481526020016006820160009054906101000a900460ff161515151581526020016006820160019054906101000a900460ff16151515158152505082600183610fa99190612f04565b81518110610fba57610fb9612f38565b5b60200260200101819052508080610fd090612f67565b915050610e2d565b508091505090565b606060066000838152602001908152602001600020805480602002602001604051908101604052809291908181526020016000905b8282101561105b57838290600052602060002090600202016040518060400160405290816000820154815260200160018201548152505081526020019060010190611015565b505050509050919050565b60008251116110aa576040517f08c379a00000000000000000000000000000000000000000000000000000000081526004016110a190612ffb565b60405180910390fd5b600081116110ed576040517f08c379a00000000000000000000000000000000000000000000000000000000081526004016110e490613067565b60405180910390fd5b6000600260008581526020019081526020016000206000015414611146576040517f08c379a000000000000000000000000000000000000000000000000000000000815260040161113d906130d3565b60405180910390fd5b6040518061010001604052808481526020018381526020018281526020013373ffffffffffffffffffffffffffffffffffffffff1681526020016000815260200182815260200160011515815260200160011515815250600260008581526020019081526020016000206000820151816000015560208201518160010190816111cf919061329f565b506040820151816002015560608201518160030160006101000a81548173ffffffffffffffffffffffffffffffffffffffff021916908373ffffffffffffffffffffffffffffffffffffffff1602179055506080820151816004015560a0820151816005015560c08201518160060160006101000a81548160ff02191690831515021790555060e08201518160060160016101000a81548160ff0219169083151502179055509050506003600084815260200190815260200160002060405180606001604052803373ffffffffffffffffffffffffffffffffffffffff16815260200142815260200183815250908060018154018082558091505060019003906000526020600020906003020160009091909190915060008201518160000160006101000a81548173ffffffffffffffffffffffffffffffffffffffff021916908373ffffffffffffffffffffffffffffffffffffffff1602179055506020820151816001015560408201518160020155505060008081548092919061135490612f67565b91905055507fb906962cbf3f3ecd490633cbf2018014c57107262f8d80f40a11ca0e8b31f2aa83838360405161138c93929190613371565b60405180910390a1505050565b813373ffffffffffffffffffffffffffffffffffffffff166002600083815260200190815260200160002060030160009054906101000a900473ffffffffffffffffffffffffffffffffffffffff1673ffffffffffffffffffffffffffffffffffffffff161461143e576040517f08c379a000000000000000000000000000000000000000000000000000000000815260040161143590613421565b60405180910390fd5b60006002600085815260200190815260200160002090508060060160009054906101000a900460ff16156114a7576040517f08c379a000000000000000000000000000000000000000000000000000000000815260040161149e906134b3565b60405180910390fd5b8060060160019054906101000a900460ff16156114f9576040517f08c379a00000000000000000000000000000000000000000000000000000000081526004016114f090613545565b60405180910390fd5b60018160060160006101000a81548160ff02191690831515021790555082816005018190555060018160060160016101000a81548160ff0219169083151502179055506003600085815260200190815260200160002060405180606001604052803373ffffffffffffffffffffffffffffffffffffffff16815260200142815260200185815250908060018154018082558091505060019003906000526020600020906003020160009091909190915060008201518160000160006101000a81548173ffffffffffffffffffffffffffffffffffffffff021916908373ffffffffffffffffffffffffffffffffffffffff160217905550602082015181600101556040820151816002015550507fb906962cbf3f3ecd490633cbf2018014c57107262f8d80f40a11ca0e8b31f2aa84826001018560405161163c939291906135e9565b60405180910390a150505050565b3373ffffffffffffffffffffffffffffffffffffffff166005600084815260200190815260200160002060010160009054906101000a900473ffffffffffffffffffffffffffffffffffffffff1673ffffffffffffffffffffffffffffffffffffffff16146116ee576040517f08c379a00000000000000000000000000000000000000000000000000000000081526004016116e590613673565b60405180910390fd5b80600560008481526020019081526020016000206002018190555060016005600084815260200190815260200160002060030160006101000a81548160ff0219169083151502179055507f0d7cc01d45ecc0b83ade1f376a2d64d2b2af92e6e719f0d9f6ae7c522ce285b382600560008581526020019081526020016000206000015433846040516117839493929190613693565b60405180910390a15050565b60006002600083815260200190815260200160002090508060060160009054906101000a900460ff166117f7576040517f08c379a00000000000000000000000000000000000000000000000000000000081526004016117ee90613724565b60405180910390fd5b8060050154341461183d576040517f08c379a000000000000000000000000000000000000000000000000000000000815260040161183490612e4d565b60405180910390fd5b60008160030160009054906101000a900473ffffffffffffffffffffffffffffffffffffffff169050600082600501549050338360030160006101000a81548173ffffffffffffffffffffffffffffffffffffffff021916908373ffffffffffffffffffffffffffffffffffffffff16021790555060008360060160006101000a81548160ff0219169083151502179055506000836005018190555060008360060160016101000a81548160ff0219169083151502179055506003600085815260200190815260200160002060405180606001604052803373ffffffffffffffffffffffffffffffffffffffff16815260200142815260200183815250908060018154018082558091505060019003906000526020600020906003020160009091909190915060008201518160000160006101000a81548173ffffffffffffffffffffffffffffffffffffffff021916908373ffffffffffffffffffffffffffffffffffffffff160217905550602082015181600101556040820151816002015550508173ffffffffffffffffffffffffffffffffffffffff166108fc349081150290604051600060405180830381858888f19350505050158015611a06573d6000803e3d6000fd5b507ff17a6666765db393a6218bb324c4de5cc60c9ee3b981bd102ba416effc13b895843383604051611a3a93929190613744565b60405180910390a150505050565b60066020528160005260406000208181548110611a6457600080fd5b9060005260206000209060020201600091509150508060000154908060010154905082565b60008054905090565b803373ffffffffffffffffffffffffffffffffffffffff166002600083815260200190815260200160002060030160009054906101000a900473ffffffffffffffffffffffffffffffffffffffff1673ffffffffffffffffffffffffffffffffffffffff1614611b37576040517f08c379a0000000000000000000000000000000000000000000000000000000008152600401611b2e90613421565b60405180910390fd5b6002600083815260200190815260200160002060060160019054906101000a900460ff16611b9a576040517f08c379a0000000000000000000000000000000000000000000000000000000008152600401611b9190612c58565b60405180910390fd5b60006002600084815260200190815260200160002060060160016101000a81548160ff02191690831515021790555060006002600084815260200190815260200160002060060160006101000a81548160ff0219169083151502179055507f586b7d6bbe3535c99fbb4b183ce687d76307b7b4cb5a6a11e32ce06199d811fc82604051611c27919061281b565b60405180910390a15050565b803373ffffffffffffffffffffffffffffffffffffffff166002600083815260200190815260200160002060030160009054906101000a900473ffffffffffffffffffffffffffffffffffffffff1673ffffffffffffffffffffffffffffffffffffffff1614611cd8576040517f08c379a0000000000000000000000000000000000000000000000000000000008152600401611ccf90613421565b60405180910390fd5b60006002600084815260200190815260200160002090508060060160009054906101000a900460ff16611d40576040517f08c379a0000000000000000000000000000000000000000000000000000000008152600401611d37906137c7565b60405180910390fd5b60008160060160006101000a81548160ff021916908315150217905550600081600501819055507f586b7d6bbe3535c99fbb4b183ce687d76307b7b4cb5a6a11e32ce06199d811fc83604051611d96919061281b565b60405180910390a1505050565b60005481565b60056020528060005260406000206000915090508060000154908060010160009054906101000a900473ffffffffffffffffffffffffffffffffffffffff16908060020154908060030160009054906101000a900460ff16905084565b6002602052806000526040600020600091509050806000015490806001018054611e2f90612ed3565b80601f0160208091040260200160405190810160405280929190818152602001828054611e5b90612ed3565b8015611ea85780601f10611e7d57610100808354040283529160200191611ea8565b820191906000526020600020905b815481529060010190602001808311611e8b57829003601f168201915b5050505050908060020154908060030160009054906101000a900473ffffffffffffffffffffffffffffffffffffffff16908060040154908060050154908060060160009054906101000a900460ff16908060060160019054906101000a900460ff16905088565b606060036000838152602001908152602001600020805480602002602001604051908101604052809291908181526020016000905b82821015611fe157838290600052602060002090600302016040518060600160405290816000820160009054906101000a900473ffffffffffffffffffffffffffffffffffffffff1673ffffffffffffffffffffffffffffffffffffffff1673ffffffffffffffffffffffffffffffffffffffff1681526020016001820154815260200160028201548152505081526020019060010190611f45565b505050509050919050565b604051806101000160405280600081526020016060815260200160008152602001600073ffffffffffffffffffffffffffffffffffffffff16815260200160008152602001600081526020016000151581526020016000151581525090565b6000604051905090565b600080fd5b600080fd5b6000819050919050565b6120728161205f565b811461207d57600080fd5b50565b60008135905061208f81612069565b92915050565b6000602082840312156120ab576120aa612055565b5b60006120b984828501612080565b91505092915050565b600080604083850312156120d9576120d8612055565b5b60006120e785828601612080565b92505060206120f885828601612080565b9150509250929050565b600073ffffffffffffffffffffffffffffffffffffffff82169050919050565b600061212d82612102565b9050919050565b61213d81612122565b82525050565b61214c8161205f565b82525050565b60006060820190506121676000830186612134565b6121746020830185612143565b6121816040830184612143565b949350505050565b6121928161205f565b82525050565b600081519050919050565b600082825260208201905092915050565b60005b838110156121d25780820151818401526020810190506121b7565b60008484015250505050565b6000601f19601f8301169050919050565b60006121fa82612198565b61220481856121a3565b93506122148185602086016121b4565b61221d816121de565b840191505092915050565b61223181612122565b82525050565b60008115159050919050565b61224c81612237565b82525050565b60006101008301600083015161226b6000860182612189565b506020830151848203602086015261228382826121ef565b91505060408301516122986040860182612189565b5060608301516122ab6060860182612228565b5060808301516122be6080860182612189565b5060a08301516122d160a0860182612189565b5060c08301516122e460c0860182612243565b5060e08301516122f760e0860182612243565b508091505092915050565b6000602082019050818103600083015261231c8184612252565b905092915050565b61232d81612122565b811461233857600080fd5b50565b60008135905061234a81612324565b92915050565b6000806040838503121561236757612366612055565b5b600061237585828601612080565b92505060206123868582860161233b565b9150509250929050565b61239981612237565b82525050565b60006020820190506123b46000830184612390565b92915050565b600081519050919050565b600082825260208201905092915050565b6000819050602082019050919050565b6000610100830160008301516123ff6000860182612189565b506020830151848203602086015261241782826121ef565b915050604083015161242c6040860182612189565b50606083015161243f6060860182612228565b5060808301516124526080860182612189565b5060a083015161246560a0860182612189565b5060c083015161247860c0860182612243565b5060e083015161248b60e0860182612243565b508091505092915050565b60006124a283836123e6565b905092915050565b6000602082019050919050565b60006124c2826123ba565b6124cc81856123c5565b9350836020820285016124de856123d6565b8060005b8581101561251a57848403895281516124fb8582612496565b9450612506836124aa565b925060208a019950506001810190506124e2565b50829750879550505050505092915050565b6000602082019050818103600083015261254681846124b7565b905092915050565b600081519050919050565b600082825260208201905092915050565b6000819050602082019050919050565b6040820160008201516125906000850182612189565b5060208201516125a36020850182612189565b50505050565b60006125b5838361257a565b60408301905092915050565b6000602082019050919050565b60006125d98261254e565b6125e38185612559565b93506125ee8361256a565b8060005b8381101561261f57815161260688826125a9565b9750612611836125c1565b9250506001810190506125f2565b5085935050505092915050565b6000602082019050818103600083015261264681846125ce565b905092915050565b600080fd5b600080fd5b7f4e487b7100000000000000000000000000000000000000000000000000000000600052604160045260246000fd5b612690826121de565b810181811067ffffffffffffffff821117156126af576126ae612658565b5b80604052505050565b60006126c261204b565b90506126ce8282612687565b919050565b600067ffffffffffffffff8211156126ee576126ed612658565b5b6126f7826121de565b9050602081019050919050565b82818337600083830152505050565b6000612726612721846126d3565b6126b8565b90508281526020810184848401111561274257612741612653565b5b61274d848285612704565b509392505050565b600082601f83011261276a5761276961264e565b5b813561277a848260208601612713565b91505092915050565b60008060006060848603121561279c5761279b612055565b5b60006127aa86828701612080565b935050602084013567ffffffffffffffff8111156127cb576127ca61205a565b5b6127d786828701612755565b92505060406127e886828701612080565b9150509250925092565b60006040820190506128076000830185612143565b6128146020830184612143565b9392505050565b60006020820190506128306000830184612143565b92915050565b600060808201905061284b6000830187612143565b6128586020830186612134565b6128656040830185612143565b6128726060830184612390565b95945050505050565b600082825260208201905092915050565b600061289782612198565b6128a1818561287b565b93506128b18185602086016121b4565b6128ba816121de565b840191505092915050565b6000610100820190506128db600083018b612143565b81810360208301526128ed818a61288c565b90506128fc6040830189612143565b6129096060830188612134565b6129166080830187612143565b61292360a0830186612143565b61293060c0830185612390565b61293d60e0830184612390565b9998505050505050505050565b600081519050919050565b600082825260208201905092915050565b6000819050602082019050919050565b60608201600082015161298c6000850182612228565b50602082015161299f6020850182612189565b5060408201516129b26040850182612189565b50505050565b60006129c48383612976565b60608301905092915050565b6000602082019050919050565b60006129e88261294a565b6129f28185612955565b93506129fd83612966565b8060005b83811015612a2e578151612a1588826129b8565b9750612a20836129d0565b925050600181019050612a01565b5085935050505092915050565b60006020820190508181036000830152612a5581846129dd565b905092915050565b7f5374616b65206e6f7420666f722073616c650000000000000000000000000000600082015250565b6000612a9360128361287b565b9150612a9e82612a5d565b602082019050919050565b60006020820190508181036000830152612ac281612a86565b9050919050565b7f496e636f72726563742070726963650000000000000000000000000000000000600082015250565b6000612aff600f8361287b565b9150612b0a82612ac9565b602082019050919050565b60006020820190508181036000830152612b2e81612af2565b9050919050565b7f596f7520616c7265616479206f776e2061207374616b6520696e20746869732060008201527f70726f7065727479000000000000000000000000000000000000000000000000602082015250565b6000612b9160288361287b565b9150612b9c82612b35565b604082019050919050565b60006020820190508181036000830152612bc081612b84565b9050919050565b6000608082019050612bdc6000830187612143565b612be96020830186612143565b612bf66040830185612134565b612c036060830184612134565b95945050505050565b7f50726f7065727479206e6f74206c697374656400000000000000000000000000600082015250565b6000612c4260138361287b565b9150612c4d82612c0c565b602082019050919050565b60006020820190508181036000830152612c7181612c35565b9050919050565b7f4e487b7100000000000000000000000000000000000000000000000000000000600052601160045260246000fd5b6000612cb28261205f565b9150612cbd8361205f565b9250828201905080821115612cd557612cd4612c78565b5b92915050565b7f4578636565647320617661696c61626c65207374616b65000000000000000000600082015250565b6000612d1160178361287b565b9150612d1c82612cdb565b602082019050919050565b60006020820190508181036000830152612d4081612d04565b9050919050565b6000612d528261205f565b9150612d5d8361205f565b9250817fffffffffffffffffffffffffffffffffffffffffffffffffffffffffffffffff0483118215151615612d9657612d95612c78565b5b828202905092915050565b7f4e487b7100000000000000000000000000000000000000000000000000000000600052601260045260246000fd5b6000612ddb8261205f565b9150612de68361205f565b925082612df657612df5612da1565b5b828204905092915050565b7f496e636f7272656374207061796d656e7420616d6f756e740000000000000000600082015250565b6000612e3760188361287b565b9150612e4282612e01565b602082019050919050565b60006020820190508181036000830152612e6681612e2a565b9050919050565b6000606082019050612e826000830186612143565b612e8f6020830185612143565b612e9c6040830184612134565b949350505050565b7f4e487b7100000000000000000000000000000000000000000000000000000000600052602260045260246000fd5b60006002820490506001821680612eeb57607f821691505b602082108103612efe57612efd612ea4565b5b50919050565b6000612f0f8261205f565b9150612f1a8361205f565b9250828203905081811115612f3257612f31612c78565b5b92915050565b7f4e487b7100000000000000000000000000000000000000000000000000000000600052603260045260246000fd5b6000612f728261205f565b91507fffffffffffffffffffffffffffffffffffffffffffffffffffffffffffffffff8203612fa457612fa3612c78565b5b600182019050919050565b7f4c6f636174696f6e2063616e6e6f74206265206e756c6c000000000000000000600082015250565b6000612fe560178361287b565b9150612ff082612faf565b602082019050919050565b6000602082019050818103600083015261301481612fd8565b9050919050565b7f50726963652063616e6e6f74206265206e756c6c000000000000000000000000600082015250565b600061305160148361287b565b915061305c8261301b565b602082019050919050565b6000602082019050818103600083015261308081613044565b9050919050565b7f50726f706572747920494420616c726561647920657869737473000000000000600082015250565b60006130bd601a8361287b565b91506130c882613087565b602082019050919050565b600060208201905081810360008301526130ec816130b0565b9050919050565b60008190508160005260206000209050919050565b60006020601f8301049050919050565b600082821b905092915050565b6000600883026131557fffffffffffffffffffffffffffffffffffffffffffffffffffffffffffffffff82613118565b61315f8683613118565b95508019841693508086168417925050509392505050565b6000819050919050565b600061319c6131976131928461205f565b613177565b61205f565b9050919050565b6000819050919050565b6131b683613181565b6131ca6131c2826131a3565b848454613125565b825550505050565b600090565b6131df6131d2565b6131ea8184846131ad565b505050565b5b8181101561320e576132036000826131d7565b6001810190506131f0565b5050565b601f82111561325357613224816130f3565b61322d84613108565b8101602085101561323c578190505b61325061324885613108565b8301826131ef565b50505b505050565b600082821c905092915050565b600061327660001984600802613258565b1980831691505092915050565b600061328f8383613265565b9150826002028217905092915050565b6132a882612198565b67ffffffffffffffff8111156132c1576132c0612658565b5b6132cb8254612ed3565b6132d6828285613212565b600060209050601f83116001811461330957600084156132f7578287015190505b6133018582613283565b865550613369565b601f198416613317866130f3565b60005b8281101561333f5784890151825560018201915060208501945060208101905061331a565b8683101561335c5784890151613358601f891682613265565b8355505b6001600288020188555050505b505050505050565b60006060820190506133866000830186612143565b8181036020830152613398818561288c565b90506133a76040830184612143565b949350505050565b7f4f6e6c79206f776e65722063616e20706572666f726d2074686973206163746960008201527f6f6e000000000000000000000000000000000000000000000000000000000000602082015250565b600061340b60228361287b565b9150613416826133af565b604082019050919050565b6000602082019050818103600083015261343a816133fe565b9050919050565b7f50726f706572747920697320616c7265616479206c697374656420666f72207360008201527f616c650000000000000000000000000000000000000000000000000000000000602082015250565b600061349d60238361287b565b91506134a882613441565b604082019050919050565b600060208201905081810360008301526134cc81613490565b9050919050565b7f50726f706572747920697320616c7265616479206c697374656420616e64206e60008201527f6f7420736f6c6420796574000000000000000000000000000000000000000000602082015250565b600061352f602b8361287b565b915061353a826134d3565b604082019050919050565b6000602082019050818103600083015261355e81613522565b9050919050565b6000815461357281612ed3565b61357c818661287b565b9450600182166000811461359757600181146135ad576135e0565b60ff1983168652811515602002860193506135e0565b6135b6856130f3565b60005b838110156135d8578154818901526001820191506020810190506135b9565b808801955050505b50505092915050565b60006060820190506135fe6000830186612143565b81810360208301526136108185613565565b905061361f6040830184612143565b949350505050565b7f596f7520646f6e2774206f776e2074686973207374616b650000000000000000600082015250565b600061365d60188361287b565b915061366882613627565b602082019050919050565b6000602082019050818103600083015261368c81613650565b9050919050565b60006080820190506136a86000830187612143565b6136b56020830186612143565b6136c26040830185612134565b6136cf6060830184612143565b95945050505050565b7f50726f7065727479206973206e6f7420666f722073616c650000000000000000600082015250565b600061370e60188361287b565b9150613719826136d8565b602082019050919050565b6000602082019050818103600083015261373d81613701565b9050919050565b60006060820190506137596000830186612143565b6137666020830185612134565b6137736040830184612143565b949350505050565b7f50726f7065727479206973206e6f74206c697374656420666f722073616c6500600082015250565b60006137b1601f8361287b565b91506137bc8261377b565b602082019050919050565b600060208201905081810360008301526137e0816137a4565b905091905056fea2646970667358221220a7bdab8478f5058181e1a37c7b77badfdff9ef1d8bfd316aeee0cf2ddc86185564736f6c63430008100033",
  "immutableReferences": {},
  "source": "// SPDX-License-Identifier: MIT\r\npragma solidity ^0.8.16;\r\n\r\n\r\ncontract PropertyMarketplace  {\r\n    \r\n\r\n    struct Property {\r\n        uint256 id;\r\n        string location;\r\n        uint256 price;\r\n        address owner;\r\n        uint256 currentStakePercentage; \r\n        uint256 salePrice;\r\n        bool isForSale;\r\n        bool isListed;\r\n    }\r\n\r\n    struct Stake {\r\n        uint256 percentage;\r\n        address investor;\r\n        uint256 salePrice;\r\n        bool forSale;\r\n    }\r\n\r\n    struct History {\r\n        address owner;\r\n        uint256 timestamp;\r\n        uint256 price;\r\n    }\r\n\r\n    struct StakeHistory {\r\n        uint256 timestamp;\r\n        uint256 price;\r\n    }\r\n\r\n    uint256 public propertyCount;\r\n    uint256  totalStakePercentage; \r\n   \r\n    mapping(uint256 => Property) public properties;\r\n    \r\n    mapping(uint256 => History[]) public propertyHistory;\r\n   mapping(uint256 => mapping(address => bool)) public hasBoughtStake;\r\n    mapping(uint256 => Stake) public stakes; \r\n    mapping(uint256 => StakeHistory[]) public stakePriceHistory; \r\n   \r\n    event PropertyListed(\r\n        uint256  propertyId,\r\n        string location,\r\n        uint256 price\r\n    );\r\n    event PropertyRemoved(uint256 propertyId);\r\n    event PropertySold(\r\n        uint256 propertyId,\r\n        address newOwner,\r\n        uint256 salePrice\r\n    );\r\n    event StakeBought(\r\n        uint256 propertyId,\r\n        uint256 percentage,\r\n        address investor\r\n    );\r\n    event StakeListedForSale(\r\n        uint256 propertyId,\r\n        uint256 percentage,\r\n        address investor,\r\n        uint256 price\r\n    );\r\n    event StakeSaleCancelled(\r\n        uint256  propertyId,\r\n        uint256 percentage,\r\n        address investor\r\n    );\r\n    event StakeSold(\r\n        uint256 propertyId,\r\n        uint256 percentage,\r\n        address seller,\r\n        address buyer\r\n    );\r\n\r\n\r\n    modifier onlyPropertyOwner(uint256 _propertyId) {\r\n        require(\r\n            properties[_propertyId].owner == msg.sender,\r\n            \"Only owner can perform this action\"\r\n        );\r\n        _;\r\n    }\r\n\r\n    modifier isValidStakePercentage(uint256 _stakePercentage) {\r\n        require(\r\n            _stakePercentage > 0 && _stakePercentage <= 49,\r\n            \"Invalid stake percentage\"\r\n        );\r\n        _;\r\n    }\r\n\r\n   \r\n\r\n    \r\nfunction listProperty(uint256 _propertyId, string memory _location, uint256 _price) external  { \r\n  \r\n\r\n    require(bytes(_location).length > 0, \"Location cannot be null\");\r\n    require(_price > 0, \"Price cannot be null\");\r\n    require(properties[_propertyId].id == 0, \"Property ID already exists\"); // Ensure uniqueness\r\n\r\n    properties[_propertyId] = Property({\r\n        id: _propertyId, \r\n        location: _location,\r\n        price: _price,\r\n        owner: msg.sender,\r\n        currentStakePercentage: 0,\r\n        isListed: true,\r\n        salePrice: _price,\r\n        isForSale: true\r\n    });\r\n   \r\n    propertyHistory[_propertyId].push(\r\n        History({\r\n            owner: msg.sender,\r\n            timestamp: block.timestamp,\r\n            price: _price\r\n        })\r\n    );\r\n    propertyCount++;\r\n    emit PropertyListed(_propertyId, _location, _price);\r\n}\r\n   \r\n\r\n\r\n\r\n    function reSellProperty(uint256 _propertyId, uint256 _newPrice) external onlyPropertyOwner(_propertyId) {\r\n       \r\n\r\n        Property storage property = properties[_propertyId];\r\n        require(!property.isForSale, \"Property is already listed for sale\");\r\n        require(!property.isListed, \"Property is already listed and not sold yet\");\r\n\r\n        property.isForSale = true;\r\n        property.salePrice = _newPrice;\r\n        property.isListed = true; \r\n\r\n        \r\n        propertyHistory[_propertyId].push(\r\n            History({\r\n                owner: msg.sender,\r\n                timestamp: block.timestamp,\r\n                price: _newPrice\r\n            })\r\n        );\r\n\r\n        emit PropertyListed(_propertyId, property.location, _newPrice); \r\n    }\r\n\r\n\r\n\r\n    function buyProperty(uint256 _propertyId) external payable {\r\n        \r\n        Property storage property = properties[_propertyId];\r\n        require(property.isForSale, \"Property is not for sale\");\r\n        require(msg.value == property.salePrice, \"Incorrect payment amount\");\r\n\r\n        address oldOwner = property.owner;\r\n        uint256 salePrice = property.salePrice;\r\n\r\n        property.owner = msg.sender;\r\n        property.isForSale = false;\r\n        property.salePrice = 0;\r\n        property.isListed = false;\r\n\r\n        \r\n        propertyHistory[_propertyId].push(\r\n            History({\r\n                owner: msg.sender,\r\n                timestamp: block.timestamp,\r\n                price: salePrice\r\n            })\r\n        );\r\n\r\n        payable(oldOwner).transfer(msg.value);\r\n        emit PropertySold(_propertyId, msg.sender, salePrice);\r\n    }\r\n\r\n    function cancelPropertySale(\r\n        uint256 _propertyId\r\n    ) external onlyPropertyOwner(_propertyId) {\r\n      \r\n        Property storage property = properties[_propertyId];\r\n        require(property.isForSale, \"Property is not listed for sale\");\r\n\r\n        property.isForSale = false;\r\n        property.salePrice = 0;\r\n\r\n        emit PropertyRemoved(_propertyId);\r\n    }\r\n\r\n    function removeProperty(\r\n        uint256 _propertyId\r\n    ) external onlyPropertyOwner(_propertyId) {\r\n        \r\n\r\n        require(properties[_propertyId].isListed, \"Property not listed\");\r\n        properties[_propertyId].isListed = false;\r\n        properties[_propertyId].isForSale = false;\r\n        emit PropertyRemoved(_propertyId);\r\n    }\r\n\r\n    function getPropertyHistory(\r\n        uint256 _propertyId\r\n    ) external view returns (History[] memory) {\r\n        return propertyHistory[_propertyId];\r\n    }\r\n\r\n    function getProperty(\r\n        uint256 _propertyId\r\n    ) external view returns (Property memory) {\r\n        return properties[_propertyId];\r\n    }\r\n    //stake logics\r\n\r\n    function buyStake(uint256 _propertyId, uint256 _stakePercentage) external payable {\r\n        Property storage property = properties[_propertyId];\r\n        require(property.isListed, \"Property not listed\");\r\n        require(!hasBoughtStake[_propertyId][msg.sender], \"You already own a stake in this property\");\r\n        require(property.currentStakePercentage + _stakePercentage <= 50, \"Exceeds available stake\");\r\n\r\n        uint256 stakePrice = (property.price * _stakePercentage) / 100;\r\n        require(msg.value == stakePrice, \"Incorrect payment amount\");\r\n\r\n        // Create or update the stake\r\n        stakes[_propertyId] = Stake({\r\n            percentage: _stakePercentage,\r\n            investor: msg.sender,\r\n            salePrice: 0,\r\n            forSale: false\r\n        });\r\n\r\n        property.currentStakePercentage += _stakePercentage;\r\n        hasBoughtStake[_propertyId][msg.sender] = true;\r\n\r\n        stakePriceHistory[_propertyId].push(StakeHistory({timestamp: block.timestamp, price: stakePrice}));\r\n\r\n        payable(property.owner).transfer(stakePrice);\r\n        emit StakeBought(_propertyId, _stakePercentage, msg.sender);\r\n    }\r\n\r\n    function sellStake(uint256 _propertyId, uint256 _price) external {\r\n        require(stakes[_propertyId].investor == msg.sender, \"You don't own this stake\");\r\n        \r\n        stakes[_propertyId].salePrice = _price;\r\n        stakes[_propertyId].forSale = true;\r\n        \r\n        emit StakeListedForSale(_propertyId, stakes[_propertyId].percentage, msg.sender, _price);\r\n    }\r\n\r\n    function buyStakeFromMarketplace(uint256 _propertyId) external payable {\r\n        Stake storage stake = stakes[_propertyId];\r\n        require(stake.forSale, \"Stake not for sale\");\r\n        require(msg.value == stake.salePrice, \"Incorrect price\");\r\n        require(!hasBoughtStake[_propertyId][msg.sender], \"You already own a stake in this property\");\r\n\r\n        payable(stake.investor).transfer(msg.value);\r\n\r\n        stake.investor = msg.sender;\r\n        stake.salePrice = 0;\r\n        stake.forSale = false;\r\n        hasBoughtStake[_propertyId][msg.sender] = true;\r\n        \r\n        emit StakeSold(_propertyId, stake.percentage, stake.investor, msg.sender);\r\n    }\r\n\r\n    \r\n\r\n    function getStakePrice(\r\n        uint256 _propertyId\r\n    ) external view returns (StakeHistory[] memory) {\r\n        return stakePriceHistory[_propertyId];\r\n    }\r\n    function getPropertyCount() public view returns (uint256) {\r\n    return propertyCount;\r\n}\r\n    function getAllProperties() public view returns (Property[] memory) {\r\n    Property[] memory allProperties = new Property[](propertyCount);\r\n    for (uint256 i = 1; i <= propertyCount; i++) {\r\n        allProperties[i - 1] = properties[i];\r\n    }\r\n    return allProperties;\r\n}\r\n\r\n \r\n}",
  "sourcePath": "D:\\Me\\blockchain\\contracts\\property.sol",
  "compiler": {
    "name": "solc",
    "version": "0.8.16+commit.07a7930e.Emscripten.clang"
  },
  "schemaVersion": "3.4.16",
  "updatedAt": "2024-05-22T08:18:30.253Z",
  "networkType": "ethereum",
  "devdoc": {
    "kind": "dev",
    "methods": {},
    "version": 1
  },
  "userdoc": {
    "kind": "user",
    "methods": {},
    "version": 1
  }
}